S00D00006C616220322E7372656396
S11300000C942A000C9447000C9447000C9447006D
S11300100C9447000C9447000C9447000C94470040
S11300200C9447000C9447000C9447000C94470030
S11300300C9447000C9447000C9447000C94470020
S11300400C9447000C9447000C9447000C94470010
S11300500C94470011241FBECFE5D8E0DEBFCDBF0E
S113006010E0A0E6B0E0E6E6F2E002C005900D92F2
S1130070A037B107D9F720E0A0E7B0E001C01D9296
S1130080A037B207E1F70E941B010C9431010C94D4
S1130090000080EF84BB8FE085BB089580E090E092
S11300A040E850E09A01082E02C0359527950A943D
S11300B0E2F724BB9B9B0FC09A9B07C0999B08C087
S11300C0989912C023E030E008C021E030E005C078
S11300D022E030E002C020E030E0220F331F220F84
S11300E0331F820F931F0895019684309105D1F632
S11300F08FEF90E00895DE9A0000DE980895CF9384
S1130100DF93D82F662311F0DC9A01C0DC98DD98C8
S11301108AB38F608ABBCBB3C07F8D2F82958F70DB
S11301208C2B8BBB0E947B00DF70DC2BDBBB0E9423
S11301307B00CF60CBBBDF91CF910895882311F072
S1130140DC9A01C0DC98DD9A8AB3807F8ABBDE9A90
S1130150000099B3DE980000DE9A000089B39295FE
S1130160907F8F70DE98892B089580E00E949E0016
S11301708823DCF300C000C080E00E949E00089544
S1130180CF93C82F0E94B50060E08C2F0E947F009F
S1130190CF91089581E00E94C0000895CF93C82FA5
S11301A00E94B500CA3049F4803410F480E401C0E0
S11301B080E080580E94C00004C061E08C2F0E943F
S11301C07F00CF910895CF93C82F8AB38F678ABBDE
S11301D08FE99FE00197F1F700C00000D99AD89AFF
S11301E00E947B0081EE94E00197F1F700C00000CB
S11301F00E947B0095E19A95F1F700000E947B0034
S113020085E18A95F1F70000D8980E947B0095E17A
S11302109A95F1F7000088E20E94C00088E00E94ED
S1130220C0000E94CA0086E00E94C0008C2F0E9479
S1130230C000CF9108958CE00E94E3000E94490021
S11302400E944E008F3F9105D9F3FC01E05AFF4F05
S113025080810E94CE000E944E008F3F9105D9F705
S1090260EFCFF894FFCF7C
S11302662B3D30432D3332312A3635342F39383746
S9030000FC
